{
  "_format": "hh-sol-artifact-1",
  "contractName": "Dao",
  "sourceName": "contracts/Dao.sol",
  "abi": [
    {
      "inputs": [],
      "stateMutability": "nonpayable",
      "type": "constructor"
    },
    {
      "anonymous": false,
      "inputs": [
        {
          "indexed": false,
          "internalType": "uint256",
          "name": "votesUp",
          "type": "uint256"
        },
        {
          "indexed": false,
          "internalType": "uint256",
          "name": "votesDown",
          "type": "uint256"
        },
        {
          "indexed": false,
          "internalType": "address",
          "name": "voter",
          "type": "address"
        },
        {
          "indexed": false,
          "internalType": "uint256",
          "name": "proposal",
          "type": "uint256"
        },
        {
          "indexed": false,
          "internalType": "bool",
          "name": "votedFor",
          "type": "bool"
        }
      ],
      "name": "newVote",
      "type": "event"
    },
    {
      "anonymous": false,
      "inputs": [
        {
          "indexed": false,
          "internalType": "uint256",
          "name": "id",
          "type": "uint256"
        },
        {
          "indexed": false,
          "internalType": "bool",
          "name": "passed",
          "type": "bool"
        }
      ],
      "name": "proposalCount",
      "type": "event"
    },
    {
      "anonymous": false,
      "inputs": [
        {
          "indexed": false,
          "internalType": "uint256",
          "name": "id",
          "type": "uint256"
        },
        {
          "indexed": false,
          "internalType": "string",
          "name": "description",
          "type": "string"
        },
        {
          "indexed": false,
          "internalType": "uint256",
          "name": "maxVotes",
          "type": "uint256"
        },
        {
          "indexed": false,
          "internalType": "address",
          "name": "proposer",
          "type": "address"
        }
      ],
      "name": "proposalCreated",
      "type": "event"
    },
    {
      "inputs": [
        {
          "internalType": "uint256",
          "name": "",
          "type": "uint256"
        }
      ],
      "name": "Proposals",
      "outputs": [
        {
          "internalType": "uint256",
          "name": "id",
          "type": "uint256"
        },
        {
          "internalType": "bool",
          "name": "exists",
          "type": "bool"
        },
        {
          "internalType": "string",
          "name": "description",
          "type": "string"
        },
        {
          "internalType": "uint256",
          "name": "deadline",
          "type": "uint256"
        },
        {
          "internalType": "uint256",
          "name": "votesUp",
          "type": "uint256"
        },
        {
          "internalType": "uint256",
          "name": "votesDown",
          "type": "uint256"
        },
        {
          "internalType": "uint256",
          "name": "maxVotes",
          "type": "uint256"
        },
        {
          "internalType": "bool",
          "name": "countConducted",
          "type": "bool"
        },
        {
          "internalType": "bool",
          "name": "passed",
          "type": "bool"
        }
      ],
      "stateMutability": "view",
      "type": "function"
    },
    {
      "inputs": [
        {
          "internalType": "uint256",
          "name": "_tokenId",
          "type": "uint256"
        }
      ],
      "name": "addTokenId",
      "outputs": [],
      "stateMutability": "nonpayable",
      "type": "function"
    },
    {
      "inputs": [
        {
          "internalType": "uint256",
          "name": "_id",
          "type": "uint256"
        }
      ],
      "name": "countVotes",
      "outputs": [],
      "stateMutability": "nonpayable",
      "type": "function"
    },
    {
      "inputs": [
        {
          "internalType": "string",
          "name": "_description",
          "type": "string"
        },
        {
          "internalType": "address[]",
          "name": "_canVote",
          "type": "address[]"
        }
      ],
      "name": "createProposal",
      "outputs": [],
      "stateMutability": "nonpayable",
      "type": "function"
    },
    {
      "inputs": [],
      "name": "owner",
      "outputs": [
        {
          "internalType": "address",
          "name": "",
          "type": "address"
        }
      ],
      "stateMutability": "view",
      "type": "function"
    },
    {
      "inputs": [
        {
          "internalType": "uint256",
          "name": "",
          "type": "uint256"
        }
      ],
      "name": "validTokens",
      "outputs": [
        {
          "internalType": "uint256",
          "name": "",
          "type": "uint256"
        }
      ],
      "stateMutability": "view",
      "type": "function"
    },
    {
      "inputs": [
        {
          "internalType": "uint256",
          "name": "_id",
          "type": "uint256"
        },
        {
          "internalType": "bool",
          "name": "_vote",
          "type": "bool"
        }
      ],
      "name": "voteOnProposal",
      "outputs": [],
      "stateMutability": "nonpayable",
      "type": "function"
    }
  ],
  "bytecode": "0x60806040523480156200001157600080fd5b50336000806101000a81548173ffffffffffffffffffffffffffffffffffffffff021916908373ffffffffffffffffffffffffffffffffffffffff16021790555060018081905550732953399124f0cbb46d2cbacd8a89cf0599974963600360006101000a81548173ffffffffffffffffffffffffffffffffffffffff021916908373ffffffffffffffffffffffffffffffffffffffff16021790555060405180602001604052807f2f9e7cecff0cea55e5f3b29d7e49fddb4f3a01220000000000000100000000018152506002906001620000ef929190620000f6565b5062000167565b82805482825590600052602060002090810192821562000135579160200282015b828111156200013457825182559160200191906001019062000117565b5b50905062000144919062000148565b5090565b5b808211156200016357600081600090555060010162000149565b5090565b61196980620001776000396000f3fe608060405234801561001057600080fd5b506004361061007d5760003560e01c8063be8bb7ba1161005b578063be8bb7ba146100d8578063d1dbe7d8146100f4578063e9d3d16a1461012c578063fd0d101f1461015c5761007d565b80631614665c146100825780631840f0ca1461009e5780638da5cb5b146100ba575b600080fd5b61009c60048036038101906100979190610f19565b610178565b005b6100b860048036038101906100b39190610ebf565b61041b565b005b6100c261069c565b6040516100cf91906110fa565b60405180910390f35b6100f260048036038101906100ed9190610e47565b6106c0565b005b61010e60048036038101906101099190610ebf565b6107f7565b604051610123999897969594939291906112a2565b60405180910390f35b61014660048036038101906101419190610ebf565b6108f4565b604051610153919061125e565b60405180910390f35b61017660048036038101906101719190610ebf565b610918565b005b6004600083815260200190815260200160002060010160009054906101000a900460ff166101db576040517f08c379a00000000000000000000000000000000000000000000000000000000081526004016101d29061117e565b60405180910390fd5b6101e582336109d2565b610224576040517f08c379a000000000000000000000000000000000000000000000000000000000815260040161021b9061121e565b60405180910390fd5b6004600083815260200190815260200160002060080160003373ffffffffffffffffffffffffffffffffffffffff1673ffffffffffffffffffffffffffffffffffffffff16815260200190815260200160002060009054906101000a900460ff16156102c5576040517f08c379a00000000000000000000000000000000000000000000000000000000081526004016102bc9061113e565b60405180910390fd5b600460008381526020019081526020016000206003015443111561031e576040517f08c379a00000000000000000000000000000000000000000000000000000000081526004016103159061119e565b60405180910390fd5b6000600460008481526020019081526020016000209050811561035a57806004016000815480929190610350906115b6565b9190505550610375565b80600501600081548092919061036f906115b6565b91905055505b60018160080160003373ffffffffffffffffffffffffffffffffffffffff1673ffffffffffffffffffffffffffffffffffffffff16815260200190815260200160002060006101000a81548160ff0219169083151502179055507f97a3ed91f0b116dc155f238ac92aa5b825720a7bb096f53156e05d9c8ab6a30a8160040154826005015433868660405161040e959493929190611382565b60405180910390a1505050565b60008054906101000a900473ffffffffffffffffffffffffffffffffffffffff1673ffffffffffffffffffffffffffffffffffffffff163373ffffffffffffffffffffffffffffffffffffffff16146104a9576040517f08c379a00000000000000000000000000000000000000000000000000000000081526004016104a0906111fe565b60405180910390fd5b6004600082815260200190815260200160002060010160009054906101000a900460ff1661050c576040517f08c379a00000000000000000000000000000000000000000000000000000000081526004016105039061117e565b60405180910390fd5b60046000828152602001908152602001600020600301544311610564576040517f08c379a000000000000000000000000000000000000000000000000000000000815260040161055b906111de565b60405180910390fd5b6004600082815260200190815260200160002060090160009054906101000a900460ff16156105c8576040517f08c379a00000000000000000000000000000000000000000000000000000000081526004016105bf906111be565b60405180910390fd5b60006004600083815260200190815260200160002090506004600083815260200190815260200160002060040154600460008481526020019081526020016000206005015410156106315760018160090160016101000a81548160ff0219169083151502179055505b60018160090160006101000a81548160ff0219169083151502179055507f4556fcf667ee704924eea359363d28f06708b744ad113340982b07ef9919fb91828260090160019054906101000a900460ff16604051610690929190611279565b60405180910390a15050565b60008054906101000a900473ffffffffffffffffffffffffffffffffffffffff1681565b6106c933610aaa565b610708576040517f08c379a00000000000000000000000000000000000000000000000000000000081526004016106ff9061123e565b60405180910390fd5b60006004600060015481526020019081526020016000209050600154816000018190555060018160010160006101000a81548160ff02191690831515021790555082816002019080519060200190610761929190610bb8565b5060644361076f9190611473565b81600301819055508181600601908051906020019061078f929190610c3e565b50815181600701819055507f3ec21697eb8018b62928e5f290d2bccf3af51e8b6cdf71fceab712977647bba9600154848451336040516107d29493929190611336565b60405180910390a1600160008154809291906107ed906115b6565b9190505550505050565b60046020528060005260406000206000915090508060000154908060010160009054906101000a900460ff169080600201805461083390611553565b80601f016020809104026020016040519081016040528092919081815260200182805461085f90611553565b80156108ac5780601f10610881576101008083540402835291602001916108ac565b820191906000526020600020905b81548152906001019060200180831161088f57829003601f168201915b5050505050908060030154908060040154908060050154908060070154908060090160009054906101000a900460ff16908060090160019054906101000a900460ff16905089565b6002818154811061090457600080fd5b906000526020600020016000915090505481565b60008054906101000a900473ffffffffffffffffffffffffffffffffffffffff1673ffffffffffffffffffffffffffffffffffffffff163373ffffffffffffffffffffffffffffffffffffffff16146109a6576040517f08c379a000000000000000000000000000000000000000000000000000000000815260040161099d9061115e565b60405180910390fd5b600281908060018154018082558091505060019003906000526020600020016000909190919091505550565b600080600090505b6004600085815260200190815260200160002060060180549050811015610a9e578273ffffffffffffffffffffffffffffffffffffffff16600460008681526020019081526020016000206006018281548110610a3a57610a3961165d565b5b9060005260206000200160009054906101000a900473ffffffffffffffffffffffffffffffffffffffff1673ffffffffffffffffffffffffffffffffffffffff161415610a8b576001915050610aa4565b8080610a96906115b6565b9150506109da565b50600090505b92915050565b600080600090505b600280549050811015610bad576001600360009054906101000a900473ffffffffffffffffffffffffffffffffffffffff1673ffffffffffffffffffffffffffffffffffffffff1662fdd58e8560028581548110610b1357610b1261165d565b5b90600052602060002001546040518363ffffffff1660e01b8152600401610b3b929190611115565b60206040518083038186803b158015610b5357600080fd5b505afa158015610b67573d6000803e3d6000fd5b505050506040513d601f19601f82011682018060405250810190610b8b9190610eec565b10610b9a576001915050610bb3565b8080610ba5906115b6565b915050610ab2565b50600090505b919050565b828054610bc490611553565b90600052602060002090601f016020900481019282610be65760008555610c2d565b82601f10610bff57805160ff1916838001178555610c2d565b82800160010185558215610c2d579182015b82811115610c2c578251825591602001919060010190610c11565b5b509050610c3a9190610cc8565b5090565b828054828255906000526020600020908101928215610cb7579160200282015b82811115610cb65782518260006101000a81548173ffffffffffffffffffffffffffffffffffffffff021916908373ffffffffffffffffffffffffffffffffffffffff16021790555091602001919060010190610c5e565b5b509050610cc49190610cc8565b5090565b5b80821115610ce1576000816000905550600101610cc9565b5090565b6000610cf8610cf3846113fa565b6113d5565b90508083825260208201905082856020860282011115610d1b57610d1a6116c0565b5b60005b85811015610d4b5781610d318882610d97565b845260208401935060208301925050600181019050610d1e565b5050509392505050565b6000610d68610d6384611426565b6113d5565b905082815260208101848484011115610d8457610d836116c5565b5b610d8f848285611511565b509392505050565b600081359050610da6816118ee565b92915050565b600082601f830112610dc157610dc06116bb565b5b8135610dd1848260208601610ce5565b91505092915050565b600081359050610de981611905565b92915050565b600082601f830112610e0457610e036116bb565b5b8135610e14848260208601610d55565b91505092915050565b600081359050610e2c8161191c565b92915050565b600081519050610e418161191c565b92915050565b60008060408385031215610e5e57610e5d6116cf565b5b600083013567ffffffffffffffff811115610e7c57610e7b6116ca565b5b610e8885828601610def565b925050602083013567ffffffffffffffff811115610ea957610ea86116ca565b5b610eb585828601610dac565b9150509250929050565b600060208284031215610ed557610ed46116cf565b5b6000610ee384828501610e1d565b91505092915050565b600060208284031215610f0257610f016116cf565b5b6000610f1084828501610e32565b91505092915050565b60008060408385031215610f3057610f2f6116cf565b5b6000610f3e85828601610e1d565b9250506020610f4f85828601610dda565b9150509250929050565b610f62816114c9565b82525050565b610f71816114db565b82525050565b6000610f8282611457565b610f8c8185611462565b9350610f9c818560208601611520565b610fa5816116d4565b840191505092915050565b6000610fbd602783611462565b9150610fc8826116e5565b604082019050919050565b6000610fe0601983611462565b9150610feb82611734565b602082019050919050565b6000611003601c83611462565b915061100e8261175d565b602082019050919050565b6000611026602983611462565b915061103182611786565b604082019050919050565b6000611049601783611462565b9150611054826117d5565b602082019050919050565b600061106c601883611462565b9150611077826117fe565b602082019050919050565b600061108f601a83611462565b915061109a82611827565b602082019050919050565b60006110b2602183611462565b91506110bd82611850565b604082019050919050565b60006110d5602883611462565b91506110e08261189f565b604082019050919050565b6110f481611507565b82525050565b600060208201905061110f6000830184610f59565b92915050565b600060408201905061112a6000830185610f59565b61113760208301846110eb565b9392505050565b6000602082019050818103600083015261115781610fb0565b9050919050565b6000602082019050818103600083015261117781610fd3565b9050919050565b6000602082019050818103600083015261119781610ff6565b9050919050565b600060208201905081810360008301526111b781611019565b9050919050565b600060208201905081810360008301526111d78161103c565b9050919050565b600060208201905081810360008301526111f78161105f565b9050919050565b6000602082019050818103600083015261121781611082565b9050919050565b60006020820190508181036000830152611237816110a5565b9050919050565b60006020820190508181036000830152611257816110c8565b9050919050565b600060208201905061127360008301846110eb565b92915050565b600060408201905061128e60008301856110eb565b61129b6020830184610f68565b9392505050565b6000610120820190506112b8600083018c6110eb565b6112c5602083018b610f68565b81810360408301526112d7818a610f77565b90506112e660608301896110eb565b6112f360808301886110eb565b61130060a08301876110eb565b61130d60c08301866110eb565b61131a60e0830185610f68565b611328610100830184610f68565b9a9950505050505050505050565b600060808201905061134b60008301876110eb565b818103602083015261135d8186610f77565b905061136c60408301856110eb565b6113796060830184610f59565b95945050505050565b600060a08201905061139760008301886110eb565b6113a460208301876110eb565b6113b16040830186610f59565b6113be60608301856110eb565b6113cb6080830184610f68565b9695505050505050565b60006113df6113f0565b90506113eb8282611585565b919050565b6000604051905090565b600067ffffffffffffffff8211156114155761141461168c565b5b602082029050602081019050919050565b600067ffffffffffffffff8211156114415761144061168c565b5b61144a826116d4565b9050602081019050919050565b600081519050919050565b600082825260208201905092915050565b600061147e82611507565b915061148983611507565b9250827fffffffffffffffffffffffffffffffffffffffffffffffffffffffffffffffff038211156114be576114bd6115ff565b5b828201905092915050565b60006114d4826114e7565b9050919050565b60008115159050919050565b600073ffffffffffffffffffffffffffffffffffffffff82169050919050565b6000819050919050565b82818337600083830152505050565b60005b8381101561153e578082015181840152602081019050611523565b8381111561154d576000848401525b50505050565b6000600282049050600182168061156b57607f821691505b6020821081141561157f5761157e61162e565b5b50919050565b61158e826116d4565b810181811067ffffffffffffffff821117156115ad576115ac61168c565b5b80604052505050565b60006115c182611507565b91507fffffffffffffffffffffffffffffffffffffffffffffffffffffffffffffffff8214156115f4576115f36115ff565b5b600182019050919050565b7f4e487b7100000000000000000000000000000000000000000000000000000000600052601160045260246000fd5b7f4e487b7100000000000000000000000000000000000000000000000000000000600052602260045260246000fd5b7f4e487b7100000000000000000000000000000000000000000000000000000000600052603260045260246000fd5b7f4e487b7100000000000000000000000000000000000000000000000000000000600052604160045260246000fd5b600080fd5b600080fd5b600080fd5b600080fd5b600080fd5b6000601f19601f8301169050919050565b7f596f75206861766520616c726561647920766f746564206f6e2074686973205060008201527f726f706f73616c00000000000000000000000000000000000000000000000000602082015250565b7f4f6e6c79204f776e65722043616e2041646420546f6b656e7300000000000000600082015250565b7f546869732050726f706f73616c20646f6573206e6f7420657869737400000000600082015250565b7f54686520646561646c696e65206861732070617373656420666f72207468697360008201527f2050726f706f73616c0000000000000000000000000000000000000000000000602082015250565b7f436f756e7420616c726561647920636f6e647563746564000000000000000000600082015250565b7f566f74696e6720686173206e6f7420636f6e636c756465640000000000000000600082015250565b7f4f6e6c79204f776e65722043616e20436f756e7420566f746573000000000000600082015250565b7f596f752063616e206e6f7420766f7465206f6e20746869732050726f706f736160008201527f6c00000000000000000000000000000000000000000000000000000000000000602082015250565b7f4f6e6c79204e465420686f6c646572732063616e2070757420666f727468205060008201527f726f706f73616c73000000000000000000000000000000000000000000000000602082015250565b6118f7816114c9565b811461190257600080fd5b50565b61190e816114db565b811461191957600080fd5b50565b61192581611507565b811461193057600080fd5b5056fea26469706673582212201be8d88767181cb7f69569f8070819d8b29caf21ba2b25d43fa8d2f7d688e83c64736f6c63430008070033",
  "linkReferences": {},
  "deployedLinkReferences": {}
}